:100000000C943A0118951895189518951895189507
:100010001895189518951895189518951895189578
:100020000C942822189518951895189518951895D8
:100030001895189518951895189518951895189558
:100040001895189518951895189518951895189548
:100050001895189518951895189518950C9465226B
:10006000189518950C94C03C0C949D3C18951895C7
:100070001895189518951895189518951895189518
:100080000C941D2418951895189518951895189581
:100090000C948D3D0C946A3D1895189518951895FB
:1000A00018951895189518951895189518951895E8
:1000B00018951895189518951895189518951895D8
:1000C0001895189518951895189518950A01C92F1F
:1000D00000CA2B0001DB2B0001E62B0026F42B00CD
:1000E000010A2C00011A2C0001372C0025402C009D
:1000F000015B2C00017A2C0001852C0001952C005D
:10010000017A290001A0290009F0280005B72B0079
:1001100001BD2B0004DA280002EE280001E32800CC
:1001200001FB280001162B0001E42A0001EF2A0040
:1001300001FD2A0001082B0001682B0003BA2800EA
:1001400002AE2C0001182900012C290001582F00B3
:1001500001672F0001792F00014329000155290073
:1001600002912A00013F2D0001652D00036A2D0038
:1001700001A42D0001AE2D0001C32D0001CF2D00E3
:1001800001E42D0001EE2D00012B2D00013A2D0080
:1001900001092F0001032D0001122D0001172D0070
:1001A00001262D000D1A2F0001272F0001362F00E8
:1001B00001412F0003762E00019A2E0001C22E006D
:1001C00001CD2E0001862F0001912F0001B02F00DC
:1001D00001BB2F0012192A0001892A0002B529004B
:1001E00001E1290023C828000F3D2900FB00000180
:1001F0007E3700FC360003C8360001FE3600011FC2
:100200003700016E3700016E37000165370001FCD1
:10021000360001DF360001E9360006FC36005F7467
:10022000370003763700FB0000018941008441005C
:10023000455141000246410011C640000B9040006C
:1002400001E5400001514100014F410001464100DC
:1002500002E540000581400001BB400001C64000AE
:100260000399400002C6400003C24000FB000000AA
:100270008895FECF0EEE0DBF0DE10EBFCFEED1E2A1
:100280000E94D642002311F00E949D430E945324F5
:100290000E9437010C9437014A9512F0000FE1F7E4
:1002A00008950024E8E0001FEA952AF0001C0416D7
:1002B000D0F3041AF8CF402D00950895FF2744236A
:1002C00012F4F1604195002312F4F09501950E941B
:1002D0005101F0FD0195F1FD41950895149F102DF8
:1002E000059F100D049F002D110D0895000F111F83
:1002F0004A95E2F7089500241124E0E1001F111F40
:10030000EA9542F0001C111C04161506B8F3041AF5
:10031000150AF4CFA001009510950895FF275523E5
:1003200012F4F1600FD0112312F4F09507D00E945F
:100330007B01F0FD03D0F1FD05C0089511950195F5
:100340001040089551954195504008952224349FBE
:10035000302D259F300D169F300D079F300D249FA7
:10036000202D310D159F200D311D069F200D311DB3
:10037000149F102D210D321D059F100D211D321DC2
:10038000049F002D110D221D321D0895000F111F15
:10039000221F331F4A95D2F7089536952795179552
:1003A00007954A95D2F7089535952795179507959E
:1003B0004A95D2F70895002411241001E0E2001FAD
:1003C000111F221F331FEA9572F0001C111C221C02
:1003D000331C041615062606370688F3041A150A78
:1003E000260A370AECCFA001B1010095109520959F
:1003F00030950895FF27772312F4F16015D0332349
:1004000012F4F09509D00E94DB01F69508F404D0AF
:10041000F69508F409C0089530952095109501953A
:100420001F4F2F4F3F4F0895709560955095419500
:100430005F4F6F4F7F4F0895FF27172E660F771F6F
:10044000089409F4771F6795EE27032E220F331FB8
:10045000089409F4331F27950895222342F032307F
:1004600030F03A95EE0F001F111F221FC2F7E0383F
:1004700021F400FF08940EF488940F4F1F4F2F4F64
:100480003F4F323038F4332319F427FD31E002C0F6
:1004900027FF30E03F3F29F0220F000C37952795CA
:1004A00008958BC0032E002012F40E940C02E02F4E
:1004B000012F122F232F3EE9E894CFCF0024F7CF4E
:1004C000F901EE0FFF1F37FBFF3F31F0EF2BE12B60
:1004D000E02B8894B8940895EE2321F00894989422
:1004E000B89408959894889438940895FB01EE0F79
:1004F000FF1F77FBFF3F31F0EF2BE52BE42B8894B8
:10050000B8940895EE2371F3E9CFF0DF68F021F499
:100510003723262F8A010895372FFBCFE7DF20F0FE
:100520000BF008957327EAF74CC0CADFE8F3B3F382
:1005300061F3DCDFC8F383F3A1F37EDF40175107DB
:100540006207730729F4302C3124E2F400242FC011
:1005500058F0F9019B01BF01F8018A01AF01E0E009
:10056000F0E0302C012C132C731B39F06695579555
:100570004795F795E0407395C9F7E7FBEE0FE0E08C
:1005800010246AF0EF0F041F151F261F60F4279533
:1005900017950795E79508F4689433955ECFEF0BB0
:1005A000040B150B260B59CFE0E87E27BECF302D6C
:1005B000307822271127002708953FE7302920E8C7
:1005C000F9CF3FEF2FEFF6CF91DFD8F3D1F370786B
:1005D000372708958BDFA8F3A3F3F9CF30783727B7
:1005E00098CF6EDF70F383F3A9F380DF50F3B3F39A
:1005F000A9F322DF0124E8943F57E040370FEF1FB3
:1006000012F021F0DACF393E90F26894302C049F3A
:10061000F001059F7727F00D711D149F2224F00D26
:10062000711D221C069F0027700D211C001F249F96
:100630004427700D211C041F159F700D211C041FE1
:10064000169F1127200C011D111F259F200C011D35
:10065000141F269F000D111D5EF433951695079506
:1006600027947795F795E79533953130BCF314C00F
:10067000112322F0332349F433950EC0339561F4EE
:10068000032C9BCF3A95313038F0EE0FFF1F771FC8
:10069000221C001F111FB2F7E894FE2B09F068948A
:1006A000212F102F022DE72F032CE1CE09DF48F078
:1006B00039F01CDF30F004171507260737070895B7
:1006C00015CF989408951894089510DFA0F0F8DEDF
:1006D00090F029F0E32FE7273AF47317089506DF27
:1006E00051F04EF0089408950417150726073707B0
:1006F00019F016F4B8F788940895F8DEE0F3E0DE18
:10070000D0F3E7DFC0F308940895F0DE20F01BF08B
:1007100070783727089555CFE9DEE9F3E0F3032E2B
:10072000072645CF032E072648CFCADEA0F36BF37A
:1007300099F3DCDE80F39BF3A9F37EDE012427FD31
:1007400006C03150E040000F111F221FD2F767FD95
:1007500006C07150F040440F551F661FD2F7E89451
:10076000371BEF0B3158EF4F2AF0EE23E9F63F3FEE
:10077000D9F203C0393EA8F26894E0E0F0E04017F7
:100780005107620738F0315008F46894000F111FC8
:10079000221FEE1F71E01124222409C0000F111F37
:1007A000221FEE1F041715072607EF0720F0041B72
:1007B000150B260BEF0B771F111C221C78F7000F6F
:1007C000111F221FEE1F041715072607EF073E2EE5
:1007D000F0F9E894E0E839F008F4E0E0322A312A50
:1007E000302A09F06894709510942094332311F006
:1007F000F0FF09C0269417947795E79508F468945C
:1008000033953130BCF3072F112D222D30CE1CDE55
:100810003F5748F03F3168F007FCC9CE3FE72FEF64
:100820001FEF0FEF089530E020E0890110E000E0B5
:100830000895432F322F212F102F0E2F4F51419506
:100840000E94D10107FE08950C940C024791179065
:1008500011FA2790379007900CBE0895F7DF041B1C
:1008600010E000C020E030E000C028F110FC25C0FE
:1008700047910790E00FF11F0417100540E024078F
:100880003407C8F486F412FE05C0E00FF11F07918B
:10089000069002C006910024F101E01BF0090CB79C
:1008A00000400CBF1994E00FF11FE00FF11F2790DB
:1008B000379007900CBEF101199411F4C6F7E3CFFD
:1008C000319612FC31960EF0329650E060E070E006
:1008D00047914B3F48F079F34F3F29F04E3F11F0DD
:1008E0007791679157914791041B150B260B370B96
:1008F00029F308F3E5CFAF93BF93D80101900D9290
:1009000041505040D9F7BF91AF910895AF93BF9335
:10091000D8013BBF07900D9241505040D9F7BF918D
:10092000AF910895E00FF11F02900A92015010401C
:10093000D9F70895FA92EA92DA92CA92BA92AA92F2
:100940009A928A927A926A925A924A92BA93AA9305
:100950009A938A930895FF84EE84DD84CC84BB84CB
:10096000AA84998488847F806E805D804C80BB815E
:10097000AA8199818881F0E0EC0FFD1FEF010895B5
:100980004A928A939A93AA93BA938D914D90ED913E
:10099000FD910D901D902D903C9008950991199115
:1009A000299139914991599169917991001F111FAC
:1009B000221F331F441F551F661F771F0095109578
:1009C000209530954095509560957095B991A99175
:1009D00099918991499008950F931F932F933F9375
:1009E0004F935F936F937F93002711279801A8017E
:1009F000B801B7E0A8E09F91AA95DAF0991F001F0F
:100A0000111F221F331F441F551F661F771F081712
:100A100014052E073F07400551056205730560F375
:100A2000081B14092E0B3F0B400951096209730979
:100A3000E3CF9A93A8E0BA95EAF60895A1DF992743
:100A400033208AF491604094E095F09500941094DE
:100A5000209430948195BFEF4B0AEB0BFB0B0B0AF4
:100A60001B0A2B0A3B0A77231AF490950E94400533
:100A700090FBB2CFE3DF92DF16F40E9440050895A9
:100A800010952095309540955095609570950195FD
:100A90001F4F2F4F3F4F4F4F5F4F6F4F7F4F089567
:100AA0000E94A204A02FB12F422ECA016624442026
:100AB00029F1AA0F0A2F0E944E3B0B2F0E94AE3B3A
:100AC00005E30A95F1F70000A1600A2F0E944E3B52
:100AD00004C00E94D33B0C936394641468F477249D
:100AE000DC01A60DB71DE42DF0E031976E167F06F0
:100AF00081F70E94F23BEFCF0E94973B00E0E8E0D5
:100B00000C94B3040E94A504A12F422ECA014420D4
:100B1000A1F0000F0E944E3B0A2F0E94AE3BA0E0C6
:100B200008C0B0E0FC01EA0FFB1F00810E94AE3B51
:100B3000A395A415B0F30E94973B00E0E5E00C9468
:100B4000B60422978E010E942D18012B19F40881FA
:100B5000198102C000E010E02296089524978E01CA
:100B60000E940618012B29F4088119812A813B81F2
:100B700004C000E010E020E030E024960895002357
:100B800011F000936E180E9401100895BA93AA9371
:100B90000E94473B0E94F912202F212B99F401E07B
:100BA0000E94AC1009E7EBDFA8E6B8E1D7DF0D93B0
:100BB0001D932D933C931397C4DFFD01048315838C
:100BC00000E010E0A991B99108950E945C0F08958A
:100BD0000E94CE1808950E94C80F08950E946717BA
:100BE000089522979E012F5F3F4F02E70E94A10FB9
:100BF000012B31F49E0103E70E94A10F012B19F094
:100C000000E010E004C0198100E02881022B229648
:100C1000089523E338E10DE418E10E94C514089516
:100C2000BA93AA93269723E338E18E010E94551DBB
:100C3000012B11F000E212C0EDE0F8E1088119810A
:100C400002AF13AF0A811B81DF01DC960D931C9369
:100C50000C811D81FE960083118300E010E0269632
:100C6000A991B9910895269723E338E18E010E9456
:100C70005414012B11F000E20FC0EDE0F8E10881FF
:100C8000198104AB15AB0A811B8106AB17AB0C8134
:100C90001D8100AF11AF00E010E026960895269761
:100CA00023E338E18E010E948D14012B11F000E244
:100CB0000FC0EDE0F8E10881198106A717A70A81A6
:100CC0001B8100AB11AB0C811D8102AB13AB00E0AB
:100CD00010E0269608950E94A104802E80E090E006
:100CE0006624772444245524A0E0B0E081FA16F469
:100CF000D6DFC80182FA16F4B6DF380183FA16F49B
:100D00008FDF280184FA16F484DFD8018629972919
:100D1000842995298A2B9B2B8C01E9E00C94B20441
:100D200068979E018E01045F1F4F0E94121C6896F7
:100D300008950E94A404C9012801DC0132D0012BCE
:100D400039F5042D02FF06C0E89444F801E00E9442
:100D5000881F05C004FF03C001E00E946A1F042D24
:100D600005FF03C001E00E94A61F8201DAD0012B1B
:100D700079F4082F092B11F4A1E005C0893C00E0AB
:100D8000900710F0A8ECB0E08D010ED0012B19F007
:100D900000E210E003C001E00E94CA1BE6E00C94F0
:100DA000B5040E94D11D0895093C20E0120710F0FF
:100DB00008EC10E00E94DC1D0895BA93AA93A39753
:100DC0008E010E5F1F4F1A930A938E010E5F1F4F05
:100DD0001A930A93BE01695F7F4FAE01495E5F4F70
:100DE0009E01255F3F4F8E010F5E1F4F0E94DF2047
:100DF000012B11F000E290C0EDE0F8E1088103FF63
:100E00002AC006A517A5008B118B00A911A9028B7A
:100E1000138B02A913A9048B158B0F81188506A7C4
:100E200017A709851A8500AB11AB0B851C8502AB92
:100E300013ABA1E5B8E106A517A50D931C93119777
:100E400000A911A912960D931C93139702A913A937
:100E500014960D931C93088106FF04C00D851E8512
:100E600004AB15AB088105FF04C00F85188906ABDC
:100E700017AB088104FF04C009891A8900AF11AFBC
:100E8000098100FF40C0208D318D20833183248D66
:100E9000358D2283338320A131A12483358324A17E
:100EA00035A1268337830B891C892D893E89068BC2
:100EB000178B208F318F0F89188D298D3A8D028FD6
:100EC000138F248F358F0B8D1C8D2D8D3E8D068FAE
:100ED000178F20A331A30F8D18A129A13AA102A336
:100EE00013A324A335A3208D318D20873187248D32
:100EF000358D2287338720A131A12487358724A10E
:100F000035A1268737870B811C812D813E8106A361
:100F100017A320A731A700E010E0A396A991B991EB
:100F2000089501600E94BE1F08950E94A404C90193
:100F3000DA01562E4424202F212BA1F04394202F98
:100F4000212B19F401E010E006C0013426E012075D
:100F500010F000E416E0980101E00E94171E012B3A
:100F600009F040C0082F092B91F0689441F819F45A
:100F700081E090E006C0813406E0900710F080E444
:100F800096E09C0102E00E94171E012B59F50A2FE2
:100F90000B2B91F0689442F819F4A1E0B0E006C080
:100FA000A13406E0B00710F0A0E4B6E09D0104E033
:100FB0000E94171E012BB1F4042D0E94DF1E012B8D
:100FC00089F4052D0E94F91E012B61F40E811F8109
:100FD0000E940C1F012B31F4088519850E941C1FEB
:100FE000012B11F000E206C00FE41AE020E00E949D
:100FF000F22100E010E0EAE00C94B50400E0009378
:10100000671800916618089500E000936718009132
:10101000651808950091671808950E94A604212F6D
:10102000220F220B322F0E945202C801D901E8E69A
:10103000F8E10481158120E030E00E945E02A80101
:10104000B9018C019D010E949503E4E00C94B70462
:101050000E949E0428013901642F88249924AA241F
:10106000BB24E0E0F0E00CC04E2F01E010E020E0F7
:1010700030E00E94CA01802A912AA22AB32A31961E
:1010800070E0E617F70784F382019301462F0E9470
:10109000D8010E945202C801D901482059206A2073
:1010A0007B20820193010E945E02280139016A952A
:1010B00002E010E020E030E0462F0E94CA010E94CA
:1010C0005202A801B901820193010E949503AC016B
:1010D000BD010E949502ECE00C94AF044EE1B8DF34
:1010E00008950E949A042297088319836901F601E2
:1010F00044815581668177810485158526853785EC
:101100000E94F102C801D901F601008511852285EE
:10111000338540815181628173810E94F102A8016F
:10112000B9018C019D010E94D40240E050E060E0D2
:1011300070E40E94F102E881F98100831183228327
:101140003383F60144815581668177810081118165
:10115000228133810E94F102C801D901F601008584
:1011600011852285338544855585668577850E945E
:10117000F102AC01BD010E94950240E050E060E048
:1011800070E40E94F102E881F981048315832683CB
:101190003783F60184849584A684B78480859185FD
:1011A000A285B38544805580668077800081118157
:1011B00022813381A801B9010E94F10268017901FD
:1011C00082019301A201B3010E94F102A801B901B9
:1011D000860197010E94D402280139018C019D01EA
:1011E000AC01BD010E94F102A801B9018201930185
:1011F0000E94D402C801D901A401B501840195015E
:101200000E94F102AC01BD010E949502E881F981C2
:10121000008711872287338700E02296E0E10C9453
:10122000AB040E949A0426970C831D832A833B8378
:1012300048835983EA81FB8184819581A681B781A6
:101240008C019D0140E050E060E070E40E94F102FA
:1012500068017901EA81FB8180809180A280B3805E
:101260008401950140E050E060E070E40E94F102EA
:1012700028013901A401B5010E94F1024801590178
:1012800086019701AC01BD010E94F102A401B501E4
:101290000E94950240E050E060E87FEB0E949502DA
:1012A000A801B9014A015B01EA81FB810085118532
:1012B00022853385A601B7010E94F102C801D90138
:1012C000EA81FB810485158526853785A201B30156
:1012D0000E94F102A801B9018C019D010E94D40273
:1012E000A401B5010E94E03DEC81FD8100831183E2
:1012F00022833383E881F98180859185A285B38536
:10130000E881F9810481158126813781A801B9011D
:101310000E94F10228013901AC01BD018C019D013F
:101320000E94F102A201B3010E9495020E94C843EB
:10133000A801B901A881B9810D911D912D913C9110
:101340000E9495030E94D33DEC81FD8104831583A7
:1013500026833783E881F98180859185A285B385CD
:10136000E881F9810081118122813381A801B901CD
:101370000E94F10228013901AC01BD018C019D01DF
:101380000E94F102A201B3010E9495020E94C8438B
:10139000A801B901E881F98104811581268137818D
:1013A0000E9495030E94D33DEC81FD810087118747
:1013B0002287338700E02696E0E10C94AB04BA93D1
:1013C000AA93A897ADE0B8E1FD0106891789208DA1
:1013D000318D84DE0C871D872E873F87FD01028DAE
:1013E000138D248D358D7ADE088B198B2A8B3B8BE0
:1013F000FD01068D178D20A131A170DE0C8B1D8B98
:101400002E8B3F8BFD0102A113A124A135A166DE25
:10141000088F198F2A8F3B8F9E01245F3F4F8E01CB
:10142000045E1F4F5EDEAE01445E5F4F9E01245F8F
:101430003F4F8E01F6DE0C811D812E813F8140EEF3
:101440005EE265E672E40E94F102FD0102A713A7C5
:1014500024A735A7A1E5B8E1088119812A813B813C
:1014600040EE5EE265E672E40E94F1021A960D9388
:101470001D932D933C931D97088519852A853B85DF
:1014800040EE5EE265E672E40E94F10216960D936C
:101490001D932D933C93A896A991B9910895E5E6E3
:1014A000F8E121E022831083018308950E94A404BF
:1014B000402EC90102E00E94563C00E00E94563CCA
:1014C00008E80E94563C00E00E94563C042D0E9411
:1014D000563CA0E00AC0BA2FBB0FBB0BFC01EA0FC1
:1014E000FB1F00810E94563CA395BA2FBB0FBB0B7C
:1014F0005524A415B5057CF30FEF0E94563CE6E099
:101500000C94B504BA93AA936297102F00E0212F90
:10151000215041F02A95C1F02A9509F442C02A953C
:1015200009F06AC0EDE0F8E146A557A55883498364
:1015300040A951A95A834B8342A953A95C834D8387
:1015400006E0143009F058C0ADE0B8E1FD0164A92F
:1015500075A9FE01202F30E0E20FF31F7083FE011A
:101560000395E00FF31F6083FD0166A977A9FE01D3
:101570000395E00FF31F7083FE010395E00FF31F47
:101580006083FD0160AD71ADFE010395E00FF31FB7
:101590007083FE010395E00FF31F60830395143001
:1015A00059F5ADE0B8E1FD0142AD53ADFE0110E0EB
:1015B000E00FF11F5083FE010395E00FF11F408300
:1015C000FD01FC9640815181FE010395E00FF11F62
:1015D0005083FE010395E00FF11F4083DE964D918D
:1015E0005C91FE010395E00FF11F5083FE0103950E
:1015F000E00FF11F408303959E0158DF6296A99189
:10160000B99108952E97EDE0F8E1608D718D7883A2
:101610006983648D758D7A836B8360A171A17C83EE
:101620006D8364A175A17E836F8326A537A5388756
:10163000298720A931A93A872B8722A933A93C877A
:101640002D879E010EE032DF2E960895BA93AA935D
:1016500001E0B5DEE1E5F8E10681178120853185FD
:101660003A932A931A930A93A7E3B8E10D911D9137
:101670002D913C913A932A931A930A9302851385EC
:10168000248535853A932A931A930A9300E012E051
:101690000E940A432C96A991B99108950E94A6042C
:1016A0002E978E01E2E9F8E830E04EE050E00E942B
:1016B0008604EDE0F8E1A08DB18D248C358C20A15D
:1016C00031A164A175A1BA83AB833C822D823E8394
:1016D0002F837887698780E008C0FE0190E0E80FDB
:1016E000F91F00810E94563C83958E30B0F32E96F0
:1016F000E4E00C94B7040E949E0468970091450FA3
:10170000002309F0F3C001E5A02E08E1B02EF50199
:1017100002851385248535850C871D872E873F8795
:10172000EDE0F8E102A513A524A535A5088B198BDA
:101730002A8B3B8BF50106811781208531850C8B27
:101740001D8B2E8B3F8B01E03ADEF5010285138560
:1017500024853585088319832A833B83EDE0F8E1EE
:1017600002A513A524A535A50C831D832E833F83D5
:10177000F5010681178120853185088719872A8719
:101780003B878824992404C001E0800E00E0901E6D
:1017900003E0801600E09006BCF58401000F111FE5
:1017A000000F111FFE01E00FF11F80819181A281C6
:1017B000B381FE013C96E00FF11F408051806280B2
:1017C000738082019301AC01BD010E94D40241E00B
:1017D00050E060E070E00E947D0330F08C019D01DC
:1017E000A201B3010E94D402EEE5FFE08081918165
:1017F00040E050E068EC72E40E94F1020E940704AD
:101800008017910708F672C08824992427C005DC48
:10181000C801D901820101DCAC01BD010E94D402E2
:1018200040E050E46CE176E40E94F1020E9407047B
:10183000F501068717870C3221E0120708F041C036
:10184000828993890196828B938B069718F000E02A
:10185000008B018B01E0800E00E0901E03E08016FB
:1018600000E090060CF044C02401440C551CEDE04F
:10187000F8E1E40DF51D608871888301CEDBC801B5
:10188000D901F501E40DF51D408051808201C5DBD1
:10189000A801B9018C019D010E94D40241E050E0F1
:1018A00060E070E00E947D03830108F0B0CFB5DBFB
:1018B000C801D9018201B1DBA801B9018C019D01E8
:1018C000ADCFEEE5FFE0228133812017310710F61E
:1018D000F50100E0028B038B808991890196808B52
:1018E000918B099708F4B6CF008B018B01E008C0FB
:1018F0000091470F002300E019F00093470F02E02A
:101900006896ECE00C94AF040E949A0426978E012E
:10191000F80120E086E021938A95E9F7882499244C
:101920002EC0220F220B322F0E940122C80108EE86
:1019300013E020E02A932A931A930A932A932A9376
:101940002A932A9310E42A932A931A932A9340E025
:1019500050EC6FEF7FEFF20100811181212F220FF8
:10196000220B322F0E940122081B190BFE01E60DEB
:10197000F71D0083118301E0800E00E0901E03E05C
:10198000801600E090060CF095C03401660C771CC0
:10199000ADE0B8E1A60DB71D08EE13E020E02A93F4
:1019A0002A931A930A932A932A932A932A9310E448
:1019B0002A932A931A932A9340E050EC6FEF7FEF1B
:1019C000FD0100891189212F220F220B322F0E9445
:1019D000012241E5442E48E1542E460C571C680173
:1019E000790108EE13E020E02A932A931A930A93D0
:1019F0002A932A932A932A9310E42A932A931A93D8
:101A00002A9340E050EC6FEF7FEFF20100811181EB
:101A1000212F220F220B322F0E940122C01AD10A3D
:101A2000E20AF30A01E0C01600E0D006E006F00684
:101A300008EE13E020E02A932A931A930A932A933C
:101A40002A932A932A9310E42A932A931A932A9387
:101A500040E050EC6FEF7FEFFD0100891189212FED
:101A60000CF45FCF220F220B322F0E940122C801FB
:101A700008EE13E020E02A932A931A930A932A93FC
:101A80002A932A932A9310E42A932A931A932A9347
:101A900040E050EC6FEF7FEFF20100811181212FC8
:101AA000220F220B322F0E94012298018C01021B6F
:101AB000130B5CCF888199810A811B81800F911F54
:101AC0000C811D81800F911FABE1B2E0FD0104A5E7
:101AD00015A508171907C8F400914A0212E0019FE2
:101AE000E00DF11D84839583002359F40E94FA21AF
:101AF00000571E4F2F4F3F4F0D931D932D933C9337
:101B00001397FD0107A5039507A700914A0200233B
:101B100009F489C00E94FA214D915D916D917C91EB
:101B20001397401751076207730708F07CC001E064
:101B30000093490200E00CC012E0019FFD01E00D9E
:101B4000F11D248135812817390708F0C901039553
:101B500010914A02011780F32BE430E002E010E01C
:101B60000E945B250E946F240F3F2FEF120711F494
:101B700000E010E00F5F1F4F0E948A24A80122E0BE
:101B800030E00BE410E00E94FD302C010FEF401616
:101B9000500611F44424552482010E948A24A8018D
:101BA00022E030E00FE410E00E94FD3021E530E05B
:101BB00004E010E00E945B250E9493240F3F4FEF4A
:101BC00014072407340721F400E010E020E030E09F
:101BD0006624040D151D261D361D0E94B524A8017E
:101BE00024E030E001E510E00E94FD302DE430E01B
:101BF00002E010E00E945B250E946F240F3F2FEF50
:101C0000120711F400E010E00817190750F48C01D6
:101C10000E948A24A80122E030E00DE410E00E9436
:101C2000FD3060924A022696E0E10C94AB040E94DB
:101C3000A604802F0091EB18002309F0AEC0669B2C
:101C4000ACC00E94F105012B09F4A7C00E94DD067B
:101C5000012B09F0A2C0A0E7B8E100917C18033085
:101C600019F408E00E946B064FDE0E94FA21FD0184
:101C70004481558166817781401751076207730758
:101C800070F400E10E946B060E94FA2108511C4F7B
:101C90002F4F3F4FFD01048315832683378388230D
:101CA00009F47BC028DD005029F00A95B9F00A95A7
:101CB00029F13CC00E94FA214D915D916D917C917A
:101CC0001397401751076207730780F500917D183D
:101CD000002361F100E000937D1828C001E000932B
:101CE0007D180E94FA21E2E5FFE040815181628186
:101CF0007381040F151F261F371F13C001E00093C7
:101D00007D180E94FA21E2E5FFE040815181628165
:101D10007381040F151F261F371F005F184D2F4FAB
:101D20003F4F0D931D932D933C93139700917E1875
:101D300010917D18012361F10E940A080023E1F04F
:101D40000E94FE0700937F180E9404080E94040866
:101D5000033010F002E002C00E94040800938018D3
:101D60000E94FA21085A1D4F2F4F3F4FFD01008757
:101D700011872287338711C00E94FA21FD01408517
:101D8000518562857385401751076207730728F4F0
:101D900000E000937F1800938018E4E00C94B704EF
:101DA0008A93802F0091811842DF882301F18630C9
:101DB00061F00091460F002341F000918F1800233D
:101DC000B1F0EF9800E000938F18082F01500450F5
:101DD00030F041F00A9541F00A9541F008C0082F13
:101DE00091DB05C00FDC03C059DC01C02FDC8991F9
:101DF00008950E94A70423970E94C605012B11F0A5
:101E000000E001C001E000931A0201E00E94E50534
:101E100000E00E94E80501E00E94EB052CE330E0C1
:101E200001EF10E00E94990688E290E0A1E02CE129
:101E300030E003E010E00E945B25980143E050E0B1
:101E40008E010E94F0420A810F3F59F498838983E2
:101E5000AA83AE0123E030E00CE110E00E94FD30E7
:101E600005C08E010E946F24C801AA8104EF11E011
:101E70001A930A9304E610E01A930A936A2F40E03B
:101E800050E020E030E08C010E9495070CE310E068
:101E90000E94EE052396E3E00C94B804BA93AA934B
:101EA000D8010E94FA210D931D932D933C9300E0DD
:101EB00010E0A991B9910895BA93AA932197E2EC01
:101EC000F2E01091DF021123E1F0002311F002E0B3
:101ED00001C000E00883AE0121E0A081B1815196EC
:101EE0001C91A281B3810C910E948205002331F5DF
:101EF00008810093CE0200E010E02196A991B991EB
:101F000008951091C8021123C9F0002321F0109107
:101F1000CE02112381F7002311F001E001C000E09F
:101F20000883AE0121E0A081B18151961C91A2816C
:101F3000B3810C910E9482050023D1F20FEF1FEFB5
:101F4000DCCFBA93AA93102FA901E2ECF2E0A081B2
:101F5000B1811D960C911D97101759F058960C9150
:101F6000101739F0DF011296ED91FC9103811017E3
:101F700018F00FEF1FEF09C060E070E021E0008172
:101F80000E945005102F110F110BA991B9910895BE
:101F90000E94A6042197802FA2ECB2E00091DE02FD
:101FA000081749F1882311F000E301C000E008831D
:101FB0000091CF02002319F008810260088300918C
:101FC000DD02002319F0088100680883AE0121E0DA
:101FD000FD0100811181F8011789FD016281738182
:101FE000FB0100810E948205002319F00FEF1FEF13
:101FF00004C08093DE0200E010E02196E4E00C943F
:10200000B7040E94A6042297802F007711F001E008
:1020100005C0882311F000E001C000E40883A2ECB1
:10202000B2E0AE0121E0ED91FC9111971589FD011F
:1020300062817381FB0100810E948205002341F5CA
:1020400008810F7B0093CA0200E0088386FB16F02C
:1020500004E0088385FB1EF008810260088384FB8E
:102060001EF008810160088383FB1EF0088108636D
:102070000883AE0121E0ED91FC9111971689FD01D5
:1020800062817381FB0100810E948205002321F09F
:1020900000E00093C8024EC0882321F0883011F080
:1020A00000E076DF60E070E0AE014F5F5F4F21E05F
:1020B000ED91FC9111971481FD0102801380F001D4
:1020C00000810E9450050023A9F580FB2EF401E158
:1020D00008830981006204C000E1088309810F7D43
:1020E00009830091DF020023098111F0006801C01B
:1020F0000F770983AE0121E0ED91FC91119716A1B4
:10210000FD0162817381FB0100810E948205002331
:1021100089F4AE014F5F5F4F21E0ED91FC91119783
:102120001481FD0162817381FB0100810E9482059F
:10213000002319F00FEF1FEF0BC08093C80200E0DF
:102140000093D10202E310E00E94612400E010E05D
:102150002296E4E00C94B7040E94A6042197802FF5
:10216000A2ECB2E00091CF02081709F44DC0FD01C6
:1021700002811381F8010081ED91FC911197148186
:10218000882360E070E0AE0121E009F443C00E94C2
:102190005005002309F07EC008810F7D0883AE0141
:1021A00021E0ED91FC9111971481FD016281738111
:1021B000FB0100810E948205002309F06BC003E04F
:1021C00010E00E94612402E008830091DD020023F8
:1021D00011F002E808830091DE02002319F0088163
:1021E00000630883AE0121E0ED91FC9111971789FE
:1021F000FD0162817381FB0100810E948205002341
:1022000009F048C08093CF0200E010E02196E4E09E
:102210000C94B7040E9450050023E1F5FD010681EE
:1022200000FF03C00881006202C008810F7D08839F
:10223000AE0121E0ED91FC9111971481FD016281C5
:102240007381FB0100810E948205002319F503E0E0
:1022500010E00E9461240091DD02002311F000E8EB
:1022600001C000E008830091DE02002319F008811C
:1022700000630883AE0121E0ED91FC91119717896D
:10228000FD0162817381FB0100810E9482050023B0
:1022900009F4B8CF0FEF1FEFB9CF0E94A70426971C
:1022A000AAE087E090E001E057DF00E10883AE019B
:1022B00021E01AE00091E5020E948205002319F056
:1022C00007E010E073C000E40883AE0121E01CE0E9
:1022D0000091E5020E948205002309F052C008E146
:1022E0000883AE0121E01AE00091E5020E94820518
:1022F000002309F046C00AE010E00E94612460E07B
:1023000070E0AE0121E012E00091E5020E9450056C
:102310000023B9F5088100FD04C00A2FAA95002307
:1023200051F7088100FF2DC060E070E0AE0126E0AB
:1023300013E00091E5020E945005002311F580E0B2
:10234000198100E02881022B08531F4F013921E039
:10235000120708F081E01B8100E02A81022B08535C
:102360001F4F013921E0120708F082601D8100E053
:102370002C81022B0058134F013629E0120708F078
:10238000846000E10883AE0121E01CE00091E502D9
:102390000E94820500E10883AE0121E01AE000916D
:1023A000E5020E94820500E0D7DE8C012696E3E07C
:1023B0000C94B8040E94A604249701E0CDDE8CE0C2
:1023C00001C08395803180F460E070E0AE0121E0CF
:1023D00010E0082F0E945005102F110F110B012B38
:1023E00081F70881083469F7803128F00BE412E0A6
:1023F0000E940A43F5C0A2ECB2E08093E50200E13E
:102400000883AE0121E01AE00091E5020E948205F6
:10241000002309F0E5C001E010E00E9461240FE113
:102420000883AE0121E01AE00091E5020E948205D6
:10243000002309F0D5C001E010E00E94612460E0B3
:1024400070E0AE0123E010E10091E5020E9450052A
:10245000002309F0C5C0088110E000581F4FFD019E
:1024600004A315A3098110E000581F4F06A317A36A
:102470000A8110E000581F4F00A711A700E1088350
:10248000AE0121E01AE00091E5020E9482050023DE
:1024900009F0A6C001E010E00E94612400E05CDECB
:1024A00000E40883AE0121E0ED91FC911197128DBB
:1024B0001296ED91FC91139700810E9482050023F2
:1024C00009F08EC00091E50200680883AE0121E0AA
:1024D000ED91FC911197168D1296ED91FC91139749
:1024E00000810E948205002309F07AC002E008837F
:1024F000AE0121E0ED91FC911197178D1296ED91AF
:10250000FC91139700810E948205002309F068C0A6
:1025100008E80883AE0121E0ED91FC91119710A12C
:102520001296ED91FC91139700810E948205002381
:1025300009F056C00091E5020883AE0121E0ED915B
:10254000FC91119711A11296ED91FC9113970081C6
:102550000E948205002309F043C00AE00883AE010F
:1025600021E0ED91FC91119712A11296ED91FC9151
:10257000139700810E948205002391F501E80883EA
:10258000AE0121E0ED91FC91119713A11296ED910E
:10259000FC91139700810E948205002309F501E157
:1025A0000883AE0121E0ED91FC91119716A11296DE
:1025B000ED91FC91139700810E948205002381F424
:1025C00003E00883AE0121E0ED91FC91119717A182
:1025D000FD01A281B3810C910E948205002319F0B4
:1025E0000FEF1FEF02C000E010E02496E4E00C942F
:1025F000B704BA93AA93269700E80883A2ECB2E046
:10260000AE0121E0ED91FC91119715891296ED91A3
:10261000FC91139700810E948205002309F076C087
:1026200004E610E00E94612400E00883AE0121E08E
:10263000ED91FC91119715891296ED91FC911397EC
:1026400000810E948205002309F060C000E0009331
:10265000D00208E40883AE0121E0ED91FC911197CE
:1026600010851296ED91FC91139700810E948205CE
:10267000002309F04BC00FEF0093C8020093C6027D
:102680000093C7020093C902FD01018702870093EE
:10269000CD020093CF0201A302A301E00093CA027E
:1026A0000093DD0200E00093DE020093D20200936B
:1026B000D1024AE050E020E030E003ED12E00E9459
:1026C000FE4200E00093DF020093E002FD01078F6D
:1026D00000A300ED17E0D7D2012BC1F402E03BD3F9
:1026E000012BA1F40AE210E09FD3012B79F402E35D
:1026F00010E027D4012B51F400E014D0012B31F469
:1027000059DE0AE010E0E3D3012B19F00FEF1FEFC1
:1027100005C0C3DD00E075DC00E010E02696A9915D
:10272000B99108950E94A604A02F80E090E0AE7FAA
:102730000091DF02002319F000E010E023C00091B7
:10274000C8020023D9F0B091CD021A2F10231093A4
:10275000CD021A1711F08FEF9FEFAA2321F40091F9
:10276000D102002311F001E001C000E0A5DBAA23A3
:1027700041F06FD1012B29F0B093CD020FEF1FEF85
:1027800001C08C01E4E00C94B7040E94A6042297D7
:10279000C801893200E0900708F072C0082F092BA9
:1027A000D9F400E0F5DB00E0088307E00983A2EC40
:1027B000B2E0AE0122E0ED91FC9111971589FD0187
:1027C000A281B3810C910E948205002309F058C0B8
:1027D00000E00093D10263C001E0DADB813000E069
:1027E000900711F402E02AC08230900711F403E050
:1027F00025C08630900710F404E020C08B3090078D
:1028000010F405E01BC08531900710F406E016C0F7
:102810008932900710F407E011C08135900710F459
:1028200008E00CC0813A900710F409E007C0813439
:1028300001E0900710F40AE001C00BE00883A2EC6D
:10284000B2E0AE0121E0ED91FC9111971185129655
:10285000ED91FC91139700810E948205002381F481
:1028600000E20883AE0121E0ED91FC9111971589FA
:10287000FD01A281B3810C910E948205002319F011
:102880000FEF1FEF0DC008E00093C80200E00093B7
:10289000CA0201E00093D10200E044DF00E010E052
:1028A0002296E4E00C94B7040E94A6042697D8016F
:1028B000C9010091C8020077A1F060E070E0AE01AC
:1028C00026E0E2ECF2E000811181F8011685E2ECED
:1028D000F2E002801380F00100810E945005002385
:1028E00019F00FEF1FEF15C0388109810D933C934C
:1028F00011973A810B81FD01028333833C810D8165
:1029000004833583082F092B11F08C01C7DA00E00E
:1029100010E02696E4E00C94B7040E94A6042697E3
:10292000D801C901E2ECF2E0068103FF12C060E0C9
:1029300070E0AE0126E000811181F8011785E2EC1C
:10294000F2E002801380F00100810E945005002314
:1029500019F00FEF1FEF15C0388109810D933C93DB
:1029600011973A810B81FD01028333833C810D81F4
:1029700004833583082F092B11F08C018FDA00E0D6
:1029800010E02696E4E00C94B7040E94A20422977B
:1029900038012901A2ECB2E00091C802002389F0BD
:1029A00060E070E0AE0122E0ED91FC91119710899A
:1029B000FD0102801380F00100810E945005002378
:1029C00019F00FEF1FEF41C0988180E00981802B43
:1029D000042D052911F0820161DA8C01212F220FCB
:1029E000220B322F0E945202A801B901FD0102817F
:1029F0001381F80106811781212F220F220B322F1C
:102A00000E945202080119018A019B01A001B10133
:102A10000E94D4024CE55FEE66EA73E40E949503DF
:102A200040E050E068EA71E40E94950240E050E026
:102A300060E877E40E94F1020E940704F30100833A
:102A400011832283338300E010E02296E8E00C94A7
:102A5000B304BA93AA932197A2ECB2E00091C80202
:102A6000002309F4E9C000E00883AE0121E0ED9104
:102A7000FC91119711891296ED91FC9113970081A9
:102A80000E948205002309F0D7C0AE0121E0ED913C
:102A9000FC91119715811296ED91FC91139700818D
:102AA0000E948205002309F0C7C0AE0121E0ED912C
:102AB000FC91119714811296ED91FC91139700816E
:102AC0000E948205002309F0B7C0FD016281738175
:102AD0000091DF02002309F45AC00CE00883AE0124
:102AE00021E0ED91FC9111971481FB0100810E947E
:102AF0008205002309F0A0C002E310E00E946124D7
:102B000000EC0883FD01068100FF02C000EE08838F
:102B1000AE0121E0ED91FC91119714811296ED9197
:102B2000FC91139700810E948205002309F084C064
:102B30000091CE02002311F002E001C000E0088302
:102B4000AE0121E0ED91FC91119711891296ED9162
:102B5000FC91139700810E948205002309F06CC04C
:102B600000E00883AE0121E0ED91FC911197158101
:102B7000FD01A281B3810C910E948205002309F01E
:102B80005BC000E010E02196A991B991089504E09E
:102B90000883AE0121E0ED91FC9111971481FB01B6
:102BA00000810E948205002309F046C00091CF02F7
:102BB000002321F4FD01068100FD02C000E401C0F4
:102BC00000E60883AE0121E0ED91FC91119714819C
:102BD0001296ED91FC91139700810E9482050023CB
:102BE00059F502E310E00E9461240091CE02002317
:102BF00011F001E001C000E00883AE0121E0ED9199
:102C0000FC91119711891296ED91FC911397008117
:102C10000E948205002381F44DEC52E021E0ED9109
:102C2000FC9111971581FD01A281B3810C910E9445
:102C30008205002309F4A5CF0FEF1FEFA4CF209149
:102C4000C602205039F02A9549F02A9559F02A9564
:102C500069F012C0F8010AEF10E00BC0F80104EFB0
:102C600011E007C0F80108EE13E003C0F80100ED21
:102C700017E00083118304C0F80100E000830183A2
:102C800000E010E00895BA93AA932197F801A2EC0E
:102C9000B2E00091C802002359F1EA5FF04051F020
:102CA000EA5FF04049F0E45FF14041F0E85EF34054
:102CB00039F01EC000E005C008E003C000E101C01B
:102CC00008E108830091C60218811695169516959D
:102CD0000117B9F0AE0121E0ED91FC911197168139
:102CE0001296ED91FC9100810E948205002319F05B
:102CF0000FEF1FEF08C00881069506950695009313
:102D0000C60200E010E02196A991B99108952091A2
:102D1000C702205039F02A9591F02A9599F02A950A
:102D2000A1F016C0F80122E020832091D0022223D6
:102D300019F02081220F208300E010E00895F801AF
:102D400024E0F2CFF80128E0EFCFF80120E1ECCF4A
:102D50000FEF1FEF0895BA93AA932197E2ECF2E0E8
:102D60001091C802112331F1025039F0025039F0AC
:102D7000045039F0085039F01DC000E005C008E0EB
:102D800003C000E101C008E108830091C702188177
:102D90001695169516950117B1F0AE0121E0A081A8
:102DA000B18117961C91A281B3810C910E9482057A
:102DB000002319F00FEF1FEF08C008810695069554
:102DC00006950093C70200E010E02196A991B99101
:102DD00008952091C902215059F02A9561F02A9551
:102DE00069F02A9571F02A9579F02A9581F015C03D
:102DF000F8010CEB0EC0F80102E60BC0F8010AE284
:102E000008C0F80104E105C0F8010AE002C0F801B9
:102E100005E010E00083118304C0F80100E00083A6
:102E2000018300E010E00895BA93AA932197E2ECA1
:102E3000F2E02091C802222371F10C3B20E012073E
:102E400010F001E015C00236120710F002E010C0C9
:102E50000A32120710F003E00BC00431120710F021
:102E600004E006C00A30104010F005E001C006E0A2
:102E700008830091C9021881011799F0AE0121E081
:102E8000A081B18112961C91A281B3810C910E9404
:102E90008205002319F00FEF1FEF05C00881009392
:102EA000C90200E010E02196A991B9910895E2ECE1
:102EB000F2E0258D222319F00FEF1FEF08952185F1
:102EC0003285F8012083318300E010E00895BA9341
:102ED000AA932197A801052BF9F0A2ECB2E0FD011D
:102EE0000185128504171507B8F0453620E0520712
:102EF00098F40E947B010A950883AE0121E0ED91D0
:102F0000FC91119714A11296ED91FC9113970081F9
:102F10000E948205002319F00FEF1FEF0EC0FD0184
:102F200001851285488150E04F5F5F4F0E947B0111
:102F3000FD0101A312A300E010E02196A991B9912F
:102F400008950E94A6042197C801A2ECB2E0009166
:102F5000C8020023C1F10091DF020023A1F5009116
:102F6000D102002369F0082F092B39F0893200E0E3
:102F7000900718F48C0109DC43C000E010E005DC88
:102F8000843000E0900718F484E090E006C0893EA9
:102F900003E0900710F088EE93E008EE13E0AC0138
:102FA0000E947B010A950883AE0121E0ED91FC911E
:102FB000119711811296ED91FC91139700810E9457
:102FC0008205002319F00FEF1FEF1CC0488150E06D
:102FD0004F5F5F4F08EE13E00E948E01FD010187F5
:102FE000128701A112A1043620E0120710F004E6B6
:102FF00010E06DDFFD01018512851695079514DF40
:1030000000E010E02196E4E00C94B7042091C602A1
:10301000205039F02A9581F02A9599F02A95A9F047
:1030200019C0F80100E023E033E400830183228328
:10303000338300E010E00895F80100E023E832E473
:10304000F4CFF80103E323E0FACFF80103E323E828
:1030500031E4EBCF0FEF1FEF08952091C70220500E
:1030600039F02A95B9F02A95C9F02A95D9F01EC0F1
:10307000F80120E030E4208331832091D002222324
:1030800031F020813181369527952083318300E00E
:1030900010E00895F80120E030E2EDCFF80120E0E3
:1030A00030E1E9CFF80120E038E0E5CF0FEF1FEF86
:1030B00008952091CD02F801208300E010E00895EA
:1030C0000E94A0042297280149013A01A2ECB2E033
:1030D0000091DF02002309F451C00091C8020023CF
:1030E00009F44CC060E070E0AE0122E0ED91FC918B
:1030F00011971485FD0102801380F00100810E9468
:1031000050050023D9F5988180E00981802B841532
:10311000950520F4F30100E0008330C0FD0102803A
:103120001380F00101811281169507950817190780
:10313000A0F460E070E0AE0121E0ED91FC91119708
:103140001389F00100810E9450050023B9F4088121
:1031500004FF03C07EDC0EEF12C060E070E0A4014B
:10316000242DED91FC9111971585FD0102801380AE
:10317000F00100810E945005002319F00FEF1FEFAE
:1031800009C0A2018C010E947B010A95F301008312
:1031900000E010E02296EAE00C94B1040093DD0216
:1031A00000E010E008950E94A10464972801C9017D
:1031B000642E01E0088300E00983A2ECB2E0AE01D6
:1031C00022E0ED91FC9111971589FD0162817381D7
:1031D000FB0100810E948205002309F0D1C108ECA7
:1031E00010E00E94612400E00883AE0121E0ED912F
:1031F000FC9111971189FD0162817381FB010081AE
:103200000E948205002309F0BBC1AE0121E0ED91CF
:10321000FC9111971581FD0162817381FB01008191
:103220000E948205002309F0ABC1AE0121E0ED91BF
:10323000FC9111971589FD0162817381FB01008169
:103240000E948205002309F09BC1AE0121E0ED91AF
:10325000FC911197128DFD0162817381FB01008148
:103260000E948205002309F08BC1AE0121E0ED919F
:10327000FC9111971481FD0162817381FB01008132
:103280000E948205002309F07BC10CE00883AE0197
:1032900021E0ED91FC9111971481FD016281738110
:1032A000FB0100810E948205002309F069C10FE043
:1032B00010E00E946124FD0102A513A5F80101851B
:1032C0000883AE0121E0ED91FC9111971281FD017F
:1032D00062817381FB0100810E948205002309F055
:1032E0004FC1FD0102A513A5F80100850883AE01B9
:1032F00021E0ED91FC9111971181FD0162817381B3
:10330000FB0100810E948205002309F039C1FD0103
:1033100002A513A5F8010285662009F0006E088356
:10332000AE0121E0ED91FC9111971681FD016281C2
:103330007381FB0100810E948205002309F020C1F6
:10334000662039F0FD0102A513A5F8010385006E82
:1033500001C000E00883AE0121E0ED91FC911197DE
:103360001781FD0162817381FB0100810E9482054A
:10337000002309F005C1662021F008EC10E00E944E
:10338000612400E40883AE0121E0ED91FC911197E6
:103390001481FD0162817381FB0100810E9482051D
:1033A000002309F0EDC008E70883AE0121E0ED91AC
:1033B000FC9111971581FD0162817381FB010081F0
:1033C0000E948205002309F0DBC008EC10E00E9497
:1033D000612400E00883AE0121E0ED91FC9111979A
:1033E0001581FD0162817381FB0100810E948205CC
:1033F000002309F0C5C060E070E0AE0122E0ED916D
:10340000FC9111971485FD0102801380F001008169
:103410000E945005002309F0B3C0188100E0298103
:10342000022B4CE050E00E947B01802EF20100E074
:103430000087018702870387048305830683078348
:103440000083018302830383FC01008701870287D5
:103450000387048305830683078300830183028334
:103460000383662479C03A8022240B81202A1C80A1
:1034700000240D81002A188100E02981022B212FD0
:10348000220F220BFC014081518162817381400F28
:10349000511F621F721F40835183628373838101B6
:1034A000212F220F220B4481558166817781420DA5
:1034B000531D621F721F4483558366837783800187
:1034C000212F220F220B4085518562857385400D87
:1034D000511D621F721F408751876287738738842E
:1034E00022240985202A1A8400240B85002A1E81A3
:1034F00000E02F81022B212F220F220BF2014081AD
:10350000518162817381400F511F621F721F40837E
:103510005183628373838101212F220F220B448107
:10352000558166817781420D531D621F721F44834E
:103530005583668377838001212F220F220B4085DC
:10354000518562857385400D511D621F721F408732
:1035500051876287738763946814A8F460E070E011
:10356000AE012CE0ED91FC9111971585FD010280D3
:103570001380F00100810E945005002309F473CFED
:103580000FEF1FEF03C110E08C861D871E871F877A
:10359000188B198B1A8B1B8BF201008111812281F0
:1035A0003381432F440F440B542F752F642F532F17
:1035B000422F312F202F10E000E0AEEEB2E00E944B
:1035C0003A05DE011C960E943A05F2010083118340
:1035D0002283338310E08C861D871E871F87188BFC
:1035E000198B1A8B1B8B0481158126813781432F00
:1035F000440F440B542F752F642F532F422F312F1C
:10360000202F10E000E0AEEEB2E00E943A05DE01AD
:103610001C960E943A05F2010483158326833783A2
:1036200010E08C861D871E871F87188B198B1A8BBD
:103630001B8B0085118522853385432F440F440B56
:10364000542F752F642F532F422F312F202F10E02E
:1036500000E0AEEEB2E00E943A05DE011C960E9448
:103660003A05F201008711872287338710E08C86A4
:103670001D871E871F87188B198B1A8B1B8BFC01CC
:103680000081118122813381432F440F440B542F39
:10369000752F642F532F422F312F202F10E000E081
:1036A000A6EFB2E00E943A05DE011C960E943A05A0
:1036B000FC01008311832283338310E08C861D87F5
:1036C0001E871F87188B198B1A8B1B8B0481158102
:1036D00026813781432F440F440B542F752F642FBD
:1036E000532F422F312F202F10E000E0A6EFB2E041
:1036F0000E943A05DE011C960E943A05FC010483F3
:1037000015832683378310E08C861D871E871F87CD
:10371000188B198B1A8B1B8B00851185228533859D
:10372000432F440F440B542F752F642F532F422FD8
:10373000312F202F10E000E0A6EFB2E00E943A0502
:10374000DE011C960E943A05FC0100871187228742
:1037500033870085118522853385013040E01407C9
:103760002407340700851185228533852CF000500D
:1037700010402140304004C0005010402F4F3F4FB8
:10378000008711872287338700E010E06496E9E024
:103790000C94B204BA93AA932197A2ECB2E01091D0
:1037A000DF021017C9F1002319F10091E002002394
:1037B00019F40FEF1FEF32C000E00E945C0F00E031
:1037C0000E94AC10FD01078D10A10E94A11700E01E
:1037D0000883AE0121E013E2FD01A281B3810C91C7
:1037E0000E94820501E00093DF020E945C0F12C07C
:1037F00000E00E945C0F0091CD020883AE0121E041
:1038000013E2FD01A281B3810C910E94820500E0C8
:103810000093DF020E94291500E010E02196A99193
:10382000B99108950E94A4042897C801D901009174
:10383000DF02002329F000E0ADDF4424439401C0FF
:1038400044248E010A5F1F4F0E941F168E010F5FD6
:103850001F4F0E9487168E010E5F1F4F0E94E916B0
:103860008E010C5F1F4F0E9457175090C8028E01A7
:103870000E94591840E09D018C010E94D3180FEF5F
:103880000093C6020093C7020093C902E2ECF2E083
:10389000018702870093C8020093CD0201E00093E4
:1038A000CA020E811F810E94431609810E94AB1635
:1038B0000A811B810E9414170C811D810E94A1178F
:1038C000052D0E94011008810E949213442011F0DE
:1038D00001E060DF07E010E02896E6E00C94B50414
:1038E0000E94A40422972901CA01282F292B81F1C3
:1038F000A2ECB2E02091C802222351F19801388352
:103900002983FD0162817381FB0120853185098155
:1039100010E0040D151D20173107D0F0AE0122E094
:10392000ED91FC911197138DFB0100810E9482059E
:10393000002371F4AC01242DED91FC911197108DB1
:10394000FD01A281B3810C910E948205002319F030
:103950000FEF1FEF02C000E010E02296E6E00C94AB
:10396000B5040E94A40422972901CA01282F292BFB
:1039700091F1A2ECB2E02091C802222361F19801FA
:1039800038832983FD0162817381FB0120853185A4
:10399000098110E0040D151D20173107E0F0AE017C
:1039A00022E0ED91FC911197138DFB0100810E94A3
:1039B0008205002381F460E070E0AC01242DED91DC
:1039C000FC911197108DFD01A281B3810C910E9491
:1039D0005005002319F00FEF1FEF02C000E010E0C8
:1039E0002296E6E00C94B5040E949A04629738018E
:1039F00059017A014B010091E002002309F045C012
:103A00000A2D0B2909F441C04424552402C0480E54
:103A1000591E4614570428F5C301841995098131AC
:103A200000E0900710F080E190E0D501A40DB51DF5
:103A3000AD019C01820154DF012B39F5AE014E5FCF
:103A40005F4F9C0182018DDF012BF9F4AC019E01D7
:103A50002E5F3F4F8D010E94D842012BC1F20EEF25
:103A600015C0F882E982AE0122E0E2ECF2E00081CA
:103A70001181F801158DE2ECF2E062817381FB01A6
:103A800000810E948205002319F00FEF1FEF09C08B
:103A900001E00093E002E2ECF2E0878E90A200E009
:103AA00010E06296E0E10C94AB040E94A404299714
:103AB000D801290182EC92E0FC01068100FF11C0CF
:103AC00060E070E0AE0128E000811181F80110A5EE
:103AD000FC0102801380F00100810E945005002348
:103AE00011F00FEF0AC008810370013011F00EEFE2
:103AF00004C00F8107FF03C00DEF1FEF4EC03A81D6
:103B000009810D933C9311973C810B81FD01028348
:103B100033833E810D81048335830D911C91119770
:103B2000FC0124A135A11302B001029FA0011203E0
:103B3000500D611D3003500D611D5D936C93119705
:103B4000FD0102811381FC0126A137A11302B001FE
:103B5000029FA0011203500D611D3003500D611D25
:103B6000FD015283638324813581FC0100A511A5E9
:103B70003102B001209FA0013003500D611D1203DE
:103B8000500D611DFD0154836583042D052919F035
:103B900082010E944E0F00E010E02996E6E00C94AE
:103BA000B50468EC70E040E054E02EEF32E006EF40
:103BB0001BE00E94F41C08959A938A936497C801AD
:103BC0008E01085F1F4FE4E7F8E830E04CE050E07A
:103BD0000E948604893C9407E8F408EC10E0AC01EC
:103BE0000E947B010150104018830983AE0122E03E
:103BF00030E006E112E00E94701C012B59F4AE0186
:103C0000485F5F4F2CE030E001EC1AE00E94701C2E
:103C1000012B19F00FEF1FEF06C0E2E8F8E18287F1
:103C2000938700E010E064968991999108950E942D
:103C3000A2042597A02F077009F4B8C0213406E02C
:103C4000300708F0B3C0A9018A0120E030E00E94EB
:103C50005E0240E050E068E473E40E9495032801AE
:103C600039018E010E9487160881025039F00250F6
:103C7000B9F0045031F10850B1F198C082019301BC
:103C800040E050E060E876E40E94F1020E94070400
:103C9000C8018201930140E050E060E476E434C062
:103CA0008201930140E050E060E076E40E94F1027E
:103CB0000E940704C8018201930140E050E060ECDB
:103CC00010C08201930140E050E060E875E40E947A
:103CD000F1020E940704C8018201930140E050E014
:103CE00060E475E411C08201930140E050E060E0BF
:103CF00075E40E94F1020E940704C8018201930149
:103D000040E050E060EC74E40E94F1020E9407047D
:103D10009C0139832A8398013B832C83A0FBB6F452
:103D2000AE014F5F5F4F22E030E004ED11E00E94F2
:103D3000701C012BD9F5AE014D5F5F4F22E030E0E2
:103D400004E211E00E94701C012B81F5A1FBB6F486
:103D5000AE014F5F5F4F22E030E008ED11E00E94BE
:103D6000701C012B19F5AE014D5F5F4F22E030E072
:103D700008E211E00E94701C012BC1F4A2FBCEF4FA
:103D8000AE014F5F5F4F22E030E00CED11E00E948A
:103D9000701C012B59F4AE014D5F5F4F22E030E003
:103DA0000CE211E00E94701C012B19F00FEF1FEFC5
:103DB00002C000E010E02596E8E00C94B3042197DF
:103DC00010E0188300FB16F410E3188301FB1EF4C7
:103DD00018811C60188302FB1EF4088103600883AD
:103DE000AE0121E030E008E411E00E94701C219651
:103DF00008952197002311F401E003C0053008F075
:103E000004E00A950883AE0121E030E00FE411E000
:103E10000E94701C21960895229745E050E00E9470
:103E20007B0118830983AE0122E030E00EED11E042
:103E30000E94701C22960895229745E050E00E944F
:103E40007B0118830983AE0122E030E00AED11E026
:103E50000E94701C229608959A938A932497CA010F
:103E600048EE53E060E070E00E94FA01AC0160E0CF
:103E700070E00E94A601388329831A830B83AE0168
:103E800024E030E00CE511E00E94701C249689913A
:103E900099910895229745E050E00E947B01188394
:103EA0000983AE0122E030E00AE511E00E94701CB7
:103EB00022960895229745E050E00E947B011883E6
:103EC0000983AE0122E030E008E511E00E94701C99
:103ED000229608952497002349F000E2088308E21F
:103EE000098300E30A8308E30B8307C044E050E042
:103EF00023EA30E08E010E94FE42AE0124E030E071
:103F00000EE91AE00E94701C0E942915249608955B
:103F10002497002349F000EC088302EC098304ECA9
:103F20000A8306EC0B8307C044E050E02BE830E046
:103F30008E010E94FE42AE0124E030E008E91AE062
:103F40000E94701C0E942915249608952997002329
:103F50008E0121F0E0E8F8E830E003C0E9E8F8E895
:103F600030E049E050E00E948604AE0129E030E0F4
:103F700008EB14E00E94701C299608950E94A30487
:103F80002A97280102E008830AEC098303EE0A83DA
:103F900009E00B83AE0124E030E008E610E00E9467
:103FA000701C03EA0883042D06FF06C000EC098399
:103FB00008EC0A8302EC03C003EA09830A830B833B
:103FC000C20180789170082F092B31F004EC0C832A
:103FD0000CEC0D8306EC03C003EA0C830D830E8307
:103FE00003EA0F8308870987AE012AE030E007EA79
:103FF0001AE00E94701C642C03E0602211F000E2C1
:1040000001C008ED0883AE0121E030E006EB1AE0C4
:104010000E94701C042D05FF02C001E001C000E0F9
:1040200095DF082F092BC9F050FA46F402EB0883FC
:104030000BE8098306EB0A830BE907C000EB088352
:1040400000E8098304EB0A8300E90B83AE0124E056
:1040500030E002EA1AE00E94701C40FA2EF508EFE8
:104060000883AE0121E030E000EB18E00E94701CF4
:104070002AEF30E007E0DBDD07E0A1DE01E0B9DE9A
:1040800004E610E0C9DE04EF11E0D6DE48EC50E0B3
:1040900009E013EE2AEC32E0DFDE08E210E0FADE9F
:1040A0000AE010E007DF09C008ED0883AE0121E057
:1040B00030E000EB18E00E94701C042D01FF02C0EC
:1040C00009ED01C008ED0883AE0121E030E00DE309
:1040D00017E00E94701C042D02FF02C001E001C025
:1040E00000E016DF042D04FF02C001E001C000E083
:1040F000F1DEA2E8B8E182010860FD010087518687
:104100000E94291500E000938E18042D06FF03C0BD
:1041100006E000938E18892B21F0FD0104850A5FCB
:104120000487042D047121F0FD010485005F0487DC
:10413000662021F0FD0104850C5F048700E010E09B
:104140002A96E7E00C94B4040E94A604D801FD016D
:104150003381832F807C3F73018100FF17C0E2E829
:10416000F8E140815181628100E0403050076007F2
:1041700069F0132F17701395369536953695032FE2
:10418000408151816281FA016CBF1995FD01018165
:1041900003FF10C0E2E8F8E143815481658100E04B
:1041A00040305007600731F014E0819F012DFA0183
:1041B0006CBF199500E010E0E4E00C94B7040E9495
:1041C0009A04A7970B831C8329833A836D837E838C
:1041D000DA0100E00883EFA9F8AD0083018349AD5F
:1041E0005AAD9E01295F3F4F00918E1810E00E944A
:1041F0006018012B09F085C0E2E8F8E10085047140
:1042000009F488C00F8168854985542F4A854D93EC
:104210005D936D930C9313970B856C854D85542F8F
:104220004E85FD0144835583668307830F85688926
:104230004989542F4A8940875187628703874B8871
:10424000742C66242C89622A0D89102F0E8904870C
:1042500015872687478600E108830D911D912D91D2
:104260003C91022F132F330F220B330BA680B78004
:104270008A2C9B2CBB0CAA08BB08A285B3858A2F6D
:104280009B2FBB0FAA0BBB0B462C572C770C660839
:104290007708A801B9010E94A6016801790184018B
:1042A0009501A401B5010E94A601C00ED11EE21E17
:1042B000F31E8C019D01AC01BD010E94A601C60147
:1042C000D701800F911FA21FB31FA201B30182016A
:1042D00093010E94A601800F911FA21FB31F80505F
:1042E0009040A040BF40813000E09007A00702E06E
:1042F000B00750F00E942915AFA9B8AD00E00D93AA
:104300000C930FEF1FEF6AC0AFA9B8AD11960C91D7
:1043100001600C93E2E8F8E1008506FF22C0FE018F
:104320003796088110E0E00FF11F30810181A981EB
:10433000BA810D933C9332810381A981BA8112968F
:104340000D933C9334810581A981BA8114960D9314
:104350003C9308810A5F0883AFA9B8AD0C9108604F
:104360000C93E2E8F8E10085118500781170012BCB
:1043700011F1FE013796088110E0E00FF11F308146
:104380000181AB81BC810D933C9332810381AB8170
:10439000BC8112960D933C9334810581AB81BC8125
:1043A00014960D933C9308810A5F0883AFA9B8ADBA
:1043B0000C9100670C93E2E8F8E10085037041F08E
:1043C0008E01095F1F4F288130E0020F131FBCDEF2
:1043D0000D811E810E944E0F00E010E0A796E4E1DF
:1043E0000C94AB04E2E8F8E100831183228300E03F
:1043F00010E00895E4EFFEE0008111812281338115
:1044000008950E94A2042A013B018C859D85AE85FA
:10441000BF850419150926093709488959896A8908
:104420007B89481B590B6A0B7B0B0E94A6014885B0
:1044300059856A857B8544195509660977090E9463
:10444000FA01080F191F2A1F3B1FE4E10C94B30463
:104450001A930A931FB700916F18039500936F1872
:1044600000916F18013019F401E000938F180FEFDD
:104470000CBB1FBF0991199118950D01A4EFBEE067
:10448000FD010085118522853385013040E0140748
:1044900024073407C4F04481558166817781AADFFF
:1044A000401751076207730770F4A4DF0C501E4FCA
:1044B0002F4F3F4FFD01048315832683378318B1A7
:1044C00000E2102718B9D00108955A924A92BA937F
:1044D000AA939A938A93FA93EA933A922A921A9217
:1044E0000A927A936A935A934A933A932A931A9325
:1044F0000A939FB74BB65CB606E006BDA4EFBEE0DC
:104500000D911D912D913C910F5F1F4F2F4F3F4FEC
:104510003C932E931E930E9300911B1910911C191E
:1045200020911D1930911E19012B022B032B89F0AC
:10453000659B0FC0EBE1F9E100811181228133819C
:104540000150104020403040008311832283338388
:1045500001C07598369910C034990EC0FD01408D88
:10456000518D628D738D46DF4017510762077307C7
:1045700068F40E942D310AC03DDF08511C4F2F4FB7
:104580003F4FFD01008F118F228F338F34993DC033
:10459000FD01338533230AF46AC000E000938A0FDB
:1045A0006CDFFD0100851185228533850F5F1F4F6C
:1045B0002F4F3F4F00871187228733871F9B57C09C
:1045C0000091560F1091570F2091580F3091590FAD
:1045D00040855185628573850417150726073707BF
:1045E00008F045C040982D9A00E00E94C0372C9AF0
:1045F00045982F98FD010FEF0087018702870387F9
:1046000008EE13E00E94612432C000918A0F00235B
:10461000D1F0FD014481558166817781EBDE401741
:10462000510762077307E8F4E5DE0C591F4F2F4F5F
:104630003F4FFD01048315832683378318B100E2C1
:10464000102718B90EC01F9B02C0359B459AD2DEB9
:104650000C501E4F2F4F3F4FFD01048315832683BF
:104660003783FD0100E00087018702870387FD0192
:10467000369954C0448D558D668D778DBBDE4017BD
:1046800051076207730798F50091150F002349F54C
:10469000FD01448555856685778500915A0F1091F7
:1046A0005B0F20915C0F30915D0F065F1F4F2F4F06
:1046B0003F4F401751076207730768F4048515855B
:1046C000268537850F5F1F4F2F4F3F4F0487158774
:1046D0002687378706C002E00093450F01E000936C
:1046E000150FFD0100E0048F058F068F078F82DE16
:1046F0004091620F5091630F6091640F7091650F4C
:10470000040F151F261F371F0C501E4F2F4F3F4FF2
:10471000FD01048B158B268B378B77C0048515859F
:1047200026853785012B022B032B29F163DE40916F
:10473000620F5091630F6091640F7091650F040FC9
:10474000151F261F371FFD01008B118B228B338B0A
:104750000091150F002321F400A1039500A305C0CB
:1047600000E00093150F0093140F00E00487058705
:104770000687078738C08091140F8823A1F14089EC
:1047800051896289738936DE4017510762077307C2
:1047900020F000918F0F801730F1813011F401E08B
:1047A0000DC0823068F000918F0F081720F400913F
:1047B0008F0F0093140F0091140F03950093450F72
:1047C0000091140F10918F0F011750F013DE0C5051
:1047D0001E4F2F4F3F4FFD01048F158F268F378FB0
:1047E00000E00093140F0091450F002371F0FD01CC
:1047F0004489558966897789FDDD4017510762072D
:10480000730718F400E00093450F5CBE4BBE9FBFDA
:104810000991199129913991499159916991799108
:104820000990199029903990E991F991899199917C
:10483000A991B9914990599018952A931A930A937E
:104840002FB71EB100E810271EB92FBF099119918B
:10485000299118950E94E5310E943F310E947525EB
:104860000E94BF240E94D424E2E2FFE00081118173
:10487000228133810E94113C00E012EC21E030E003
:104880000E94DF3C78940E94DE240E9432330E9412
:10489000F90E01E00E94C03704E610E00E94612496
:1048A0001298739A0895D6DF0E94FC370E948633CF
:1048B0000E94B8320E94B73500917C180E94D00E39
:1048C000F3CF07C02FE93FE021503040E9F700C0A7
:1048D0000000980101501040232BA1F70895B80162
:1048E0000024112420E012C0022F10E00195104096
:1048F000FB01E00FF11F018110E0422F440F440F34
:10490000440F0E947801002A112A2395223060F377
:1049100080010895202F2093C118012F0093C01803
:1049200000EC18E10895B801002411242224332456
:1049300050E016C0052F10E001951040FB01E00F7C
:10494000F11F038110E020E030E0452F440F440FB9
:10495000440F0E94CA01002A112A222A332A5395A1
:10496000543040F3800191010895E2ECF8E1A80190
:1049700043835283B901618370838F01089504E0FA
:1049800002B905E001B900E805B900EF04B905E690
:1049900008B905E207B900E00BB900E70AB900E081
:1049A0000EB908E20DB9089500EC00936A00EF9883
:1049B0000FEF0CBB00E000936F18089500E004BDFA
:1049C00003E005BD06E006BD00916E0001600093A6
:1049D0006E00A89A0895BA93AA93A6E1BFE0FD01DC
:1049E00000891189228933894485558566857785B3
:1049F000041715072607370791F00AE010E061DF7A
:104A000004851585268537850E94113CFD010485A6
:104A1000158526853785008B118B228B338BA991C9
:104A2000B9910895013D27E0120710F000ED17E05D
:104A3000202F212B81F46F98779800E00093990044
:104A40000093980000919100047F009391000091E1
:104A500071000D7F2DC06F9A000F111F20E030E014
:104A60000E945E02A801B90100E010E02AE734E4E8
:104A70000E94950340E050E06AE774E40E94F1026E
:104A800040E050E060E87EE30E94F10240E050E048
:104A900060E87FEB0E9495020E9407041093990042
:104AA000009398000BE00093910000917100026068
:104AB00000937100089540E00FB6F894F999FECF85
:104AC000522F51BDB90172BD2F5F3F4FF89A60B5AB
:104AD00050E0FA01EE5AF04F648B439501501040BC
:104AE00079F70FBE06E61FE008950E94A6042397FB
:104AF00080E023E230E00FE010E0DDDF00E019C0ED
:104B000010E0E2E5FFE0E00FF11F1489212F2053B0
:104B10002A3070F0212F21562A3150F011541A31C9
:104B200038F010E0F801E856F74E10E3158381E005
:104B300003950F3028F3882349F04DE958E12FE021
:104B400030E003E210E00E94FD3080E024E630E037
:104B50000FE010E0B0DF00E019C010E0E2E5FFE098
:104B6000E00FF11F1489212F20532A3070F0212FDC
:104B700021562A3150F011541A3138F010E0F80162
:104B8000E856F74E10E3158381E003950F3028F3C4
:104B9000882349F04DE958E12FE030E004E610E0C9
:104BA0000E94FD3080E020E130E005E010E083DF8E
:104BB00000E001C00395053098F410E0F801EE5ACA
:104BC000F04F14891F3FB1F7E8E9F8E102E00583EF
:104BD00000E0068305E0078300E00087018781E0AD
:104BE000882341F04DE958E125E030E000E110E094
:104BF0000E94FD30E8E9F8E1A2E5BFE0158104E696
:104C0000109F102D26810AE0209F100D0781100FA4
:104C10001093870F10850AE0109F0185000E009207
:104C2000880F28E730E001E010E045DFF80100815F
:104C30000093900F033210F00F3F59F406E90093F0
:104C4000900F40E95FE021E030E008E710E00E94CB
:104C5000FD3022E330E004E010E02DDF64DE0D9350
:104C60001D932D933C9313970D911D912D913C9184
:104C700013970F3F4FEF14072407340789F400EE12
:104C800013E924E030E00D931D932D933C9313978B
:104C90006CDEA80124E030E002E310E00E94FD3069
:104CA00022E430E002E010E006DF19DEFD010487B7
:104CB0001587013526E4120760F004E610E004874A
:104CC000158728DEA80122E030E002E410E00E940F
:104CD000FD3024E430E002E010E0EDDE00DEFD0116
:104CE00006871787003020E8120760F00CED15E00A
:104CF000068717870FDEA80122E030E004E410E009
:104D00000E94FD3026E330E004E010E0D4DE0BDE4C
:104D1000FD0104831583268337830F3F4FEF14076C
:104D20002407340781F400ED17E020E030E004832D
:104D300015832683278319DEA80124E030E006E3EB
:104D400010E00E94FD302EE330E004E010E0B3DE1E
:104D5000EADDFD0100871187228733870F3F4FEF80
:104D600014072407340781F408EE13E020E030E054
:104D70000087118722872387F8DDA80124E030E02F
:104D80000EE310E00E94FD3029E130E001E010E088
:104D900092DEF80100810093910F0091910F0F3F77
:104DA00059F405E50093910F41E95FE021E030E01F
:104DB00009E110E00E94FD302BE130E001E010E05D
:104DC0007ADEF80100810093890F0F3F59F401E466
:104DD0000093890F49E85FE021E030E00BE110E04B
:104DE0000E94FD3028E430E001E010E064DEF801CC
:104DF000008100938B0F0F3F59F405E000938B0F58
:104E00004BE85FE021E030E008E410E00E94FD3074
:104E100029E430E002E010E04EDE61DDE7E4F2E09C
:104E200000831183808191818F3F9F4F31F00081FA
:104E30001181083E23E0120760F408E21AE00083C3
:104E4000118368DDA80122E030E009E410E00E944F
:104E5000FD302BE430E002E010E02DDE40DD0F3FBE
:104E60001F4FF1F02FE430E002E010E024DE37DDE8
:104E70000F3F1F4FA9F02DE430E002E010E01BDEF1
:104E80002EDD0F3F1F4F61F021E530E004E010E020
:104E900012DE49DD0F3F4FEF14072407340751F5A9
:104EA00000E010E037DDA80122E030E00BE410E084
:104EB0000E94FD3000E010E02DDDA80122E030E08E
:104EC0000FE410E00E94FD3000E010E023DDA801B7
:104ED00022E030E00DE410E00E94FD3000E010E040
:104EE00020E030E042DDA80124E030E001E510E000
:104EF0000E94FD3022E230E001E010E0DCDDF8014C
:104F0000008100938E0F0F3F11F0023058F001E046
:104F100000938E0F4EE85FE021E030E002E210E007
:104F20000E94FD3025E130E001E010E0C4DDF80131
:104F3000008100938C0F0F3F59F405E000938C0F14
:104F40004CE85FE021E030E005E110E00E94FD3038
:104F500026E130E001E010E0AEDDF80100810093D1
:104F60008D0F0F3F59F401E000938D0F4DE85FE086
:104F700021E030E006E110E00E94FD302CE130E05D
:104F800003E010E098DD0091680F0F3F69F400E046
:104F9000088308E2098301E00A83AE0123E030E0E0
:104FA0000CE110E00E94FD3027E530E001E010E068
:104FB00082DDF801008100938F0F0F3F59F402E06A
:104FC00000938F0F4FE85FE021E030E007E510E04D
:104FD0000E94FD3025E530E002E010E06CDD7FDC72
:104FE00020E0FD01008B118B228B238B008911891E
:104FF00022893389013D47E0140740E02407340744
:1050000070F008EC10E030E0008B118B128B138BEA
:1050100081DCA80122E005E510E00E94FD30239626
:10502000E4E00C94B7046FB7F894F999FECF402FE1
:1050300041BDA80152BDF89A40B557B7752F70FD14
:10504000FCCF4F3F31F04FEF40BDFA9AF99AF999F2
:10505000FECF0F5F1F4F2150304049F76FBF0895BB
:105060000E94A404EF97A19728011901DA018E018B
:10507000F80120E080E421938A95E9F780E090E050
:105080009101820118DD00E010E015C0FD01E00F84
:10509000F11F2081F801EE5AF04F3489231749F0AF
:1050A000FE019C01220F331FE20FF31F00831183C7
:1050B00001960F5F1F4F0415150540F300E010E047
:1050C00014C0FE019801220F331FE20FF31F20814D
:1050D0003181FD01E20FF31F2081FE01E05CFF4FF3
:1050E000E00FF11F20830F5F1F4F0817190748F3C8
:1050F0002FB7F89407B7102F10FDFCCFA0E0B0E059
:1051000019C0FE018D01000F111FE00FF11F00817A
:105110001181302F320D31BD131D12BDFE01E05C37
:10512000FF4FEA0FFB1F008100BDFA9AF99AF99927
:10513000FECF1196A817B90720F32FBFEF96A196BF
:10514000E6E00C94B50401E000939C1800939D18D0
:105150002D9A10E0B6DB2D9808950E94A604A8971A
:10516000A8E9B8E100919A18ECECF0E0FBBFF0E0A0
:105170000C942E0445E050E02DE938E10DE41FE0E9
:105180000E94D842012B09F004C70E942D3101C7AB
:1051900005E000939C1845E050E028E43FE00DE96D
:1051A00018E10E94F04200918E0F002309F087C69B
:1051B00000E086C601E000939C1800919D18002332
:1051C00099F500E032C001E000939C1800919D1811
:1051D000002311F02C98DDC62C9ADBC6B4DFD9C6AB
:1051E00001E000939C1800919D18002311F0409A53
:1051F000D0C64098CEC601E000939C1800919D183F
:10520000002359F0759AEBE1F9E100EA1FE020E094
:10521000008311832283238301C0759800E00E94DC
:10522000C03708EE13E04DDB01E00E94C037B1C685
:1052300001E000939C1800919D18002359F0759A85
:10524000EBE1F9E100E117E220E000831183228322
:1052500023839FC675989DC601E000939C1808E0C3
:1052600010911A02011B00939D1800E00E94900605
:10527000FD011581101B15838CC600E000939C185E
:105280000E94A63786C60DE918E129DBC8014091C6
:105290009F18042F0E5F00939C189C01042F10E0B0
:1052A0000ADC40919F1850E01FC00DE918E117DBA0
:1052B000C8010B5E1040053123E01207D0F44FE91E
:1052C00058E19C0100919C1810E002501040C8DE8B
:1052D0009C0100919C1810E002501040ECDB4091C2
:1052E0009C1850E04250504026E63FE00FE918E19C
:1052F00034C68BC500919C18033008F44AC60DE9EA
:1053000018E1EDDAC801012B41F444E058E020E057
:1053100030E004ED1FE00E94FE4240919C1850E0F6
:10532000425050402FE938E1BA0145E08C010E941B
:105330007801E4EDFFE0E00FF11FAB018F010DC636
:1053400000919C180D3009F029C60DE918E10E9462
:10535000353B013009F41DC64DE050E02FEF30E041
:105360000DE918E10E94FE4214C623E230E00FE08E
:1053700010E0A1DB00E020E01AC030E0E2E5FFE051
:10538000E20FF31F1489312F30533A3078F0312F68
:1053900031563A3158F011541A3140F030E0E8E912
:1053A000F8E1E20FF31F00E3058301E023952F30BE
:1053B00020F30023C9F14DE958E12FE030E003E28A
:1053C00031C024E630E00FE010E075DB00E020E0C3
:1053D00009C030E0E8E9F8E1E20FF31F00E30583DC
:1053E00001E023952F30B8F430E0E2E5FFE0E20F72
:1053F000F31F1489312F30533A3098F3312F31563F
:105400003A3178F311541A3160F3222311F702E391
:1054100000939D18E5CF002339F04DE958E12FE0C6
:1054200030E004E610E0E9D60FE000939C184FE06E
:105430007DC420E130E005E010E03DDB00E020E04D
:105440000EC002E000939D1830939E1805E0009373
:105450009F183093A0183093A11801E023952530B0
:10546000E8F430E0F901EE5AF04F14891F3FB1F72C
:105470000091430F005029F00A9551F00A9509F365
:10548000ECCF01E000939D1809E000939E18DFCF58
:1054900002E000939D1830939E18D9CF002339F075
:1054A0004DE958E125E030E000E110E0A6D645E006
:1054B00050E026E63FE00DE918E10E94F04202E0EC
:1054C00000939C1810919D1804E6109F00929D185F
:1054D00010919E180AE0109FFD010581000D0583C3
:1054E00000919F181581100F15831091A0180AE0E4
:1054F000109F00929E180091A1181681100F16831C
:1055000000919D180093870F00919E180093880FBB
:1055100040C502E000939C1800E000939D1803E250
:1055200001C202E000939C18A6E1BFE0FD01008DDE
:10553000118D228D338D40E050E060E070E00E94DC
:10554000650330F4FD01508F518F528F538F0BC084
:1055500041E06FE773E40E947D0328F4FD01508F62
:10556000518F628F738FFD01808D918DA28DB38DD0
:105570008C019D010E94070400939D1810E020E01B
:1055800030E00E945E02A801B9018C019D010E94D9
:10559000D40240E050E060E271E40E94F10240E099
:1055A00050E060E070E00E94650308F4DBC041E079
:1055B00060E171E40E947D0320F400E010E020E14E
:1055C00031E40E940704AEC101E000939C184DE94C
:1055D00058E121E030E009E110E00FD607C001E01A
:1055E00000939C1829E130E010E065DA0091660F25
:1055F00000939D180093910FCCC401E000939C1878
:105600004DE958E121E030E00BE110E0F6D507C0AC
:1056100001E000939C182BE130E010E04CDA00919F
:10562000660F00939D180093890FB3C402E00093A6
:105630009C1810E001E10E948037E2EDF8E1008162
:1056400011812281338141E050E060E070E00E94EE
:105650006503E2EDF8E128F45083518352835383CC
:1056600010C0008111812281338140E06FE773E433
:105670000E947D0330F4E2EDF8E1508351836283B0
:105680007383E2EDF8E100811181228133810E9470
:10569000070400939D1810E020E030E00E945E02B5
:1056A000A801B901E2ED00811181228133810E94BC
:1056B000D40240E050E060E271E40E94F10240E078
:1056C00050E060E070E00E94650308F070CF4AC0CF
:1056D00002E000939C18A6E1BFE00D911D912D9171
:1056E0003C91139740E050E060E070E00E94650359
:1056F00028F45D935D935D935C930FC00D911D91B4
:105700002D913C91139741E06FE773E40E947D0374
:1057100028F45D935D936D937C9313970D911D9188
:105720002D913C9113970E94070400939D1810E05F
:1057300020E030E00E945E02A801B9010D911D91A8
:105740002D913C910E94D40240E050E060E271E46F
:105750000E94F10240E050E060E070E00E946503CA
:1057600008F025CF00E010E020E030E02ACF01E093
:1057700000939C180091E6180AC48E010E94DF373E
:105780000C8100939C1840919C1850E09E012B5F67
:105790003F4FE1C30FEF0093860F00E00093420FED
:1057A000003108F0F6C310E0E6E1FFE0E00FF11F82
:1057B000148F0395F5CF01E000939C184DE958E153
:1057C00021E030E00AE110E018D507C001E00093C5
:1057D0009C182AE130E010E06ED90091660F00932A
:1057E0009D180093F218D5C300E000939C18009117
:1057F0009D1800937C1800919E18002311F001E081
:1058000001C000E00093460F00E000936F18009382
:105810008F18BFC300E000939C1800919D180023CF
:1058200011F001E001C000E000937E1800E0009359
:105830007F18AFC303E000939C180DE918E14FD81F
:1058400024EF31E03A932A9324E630E03A932A9306
:1058500060919F1840E050E020E00E9495074DE9DC
:1058600058E123E030E00CE110E0C7D407C003E0CA
:1058700000939C182CE130E010E01DD943E056C2A3
:10588000E0919C18E33008F484C308F482C31091BB
:105890009D1800E020919E18022B45E00E9478019F
:1058A000980120503C4F4FE958E10E2F10E0025074
:1058B0001040D6DB6EC300919C18033008F469C316
:1058C00050919F18552309F464C310919D1800E06E
:1058D00020919E18022B45E00E947801C80180505B
:1058E0009C4F50939C189C01052F10E0E4D84091E8
:1058F0009F181CC202E000939C184DE958E122E079
:1059000030E006E410E079D407C002E000939C1870
:1059100026E430E010E0CFD80091660F00939D1888
:105920000091670F00939E1834C300E008C010E098
:10593000E8E9F8E1E00FF11F1FEF1583039502304E
:10594000B0F34DE958E122E030E006E410E055D430
:105950002FEF3BE000E014E066DB1BC305E00093A3
:105960009C1800917D1800939D180091450F10918F
:105970007E18112319F010918018012B00939E18A6
:10598000019902C001E001C000E000939F1800915E
:1059900049020093A01800918118002341F110E002
:1059A00001E10E948037E2EDF8E10081118122815E
:1059B000338141E050E060E070E00E946503E2ED79
:1059C000F8E128F4508351835283538310C000813F
:1059D00011812281338140E06FE773E40E947D03EF
:1059E00030F4E2EDF8E150835183628373830091D8
:1059F0008A0F0093A11800E00093450F00938018D0
:105A000000934902C6C201E000939C184DE958E199
:105A100021E030E005E110E0F0D30091660F009343
:105A20008C0FB7C201E000939C1825E123C201E06E
:105A300000939C184DE958E121E030E006E110E0C8
:105A4000DCD30091660F00938D0FA3C201E0009399
:105A50009C1826E10FC201E000939C184DE958E123
:105A600021E030E008E710E0C8D30091660F009312
:105A7000900F8FC201E000939C1828E7FBC104E05F
:105A800000939C184DE958E124E030E002E310E077
:105A9000B4D3A2E5BFE006E61FE00E9493240D9375
:105AA0001D932D933C9313970E94FA214D915D9184
:105AB0006D917C91040F151F261F371FE0E7F8E159
:105AC000008311832283338364C204E000939C1813
:105AD00022E33EC004E000939C180DE918E10E9407
